{
  "contractName": "AnimeCard",
  "abi": [
    {
      "constant": true,
      "inputs": [],
      "name": "owner",
      "outputs": [
        {
          "name": "",
          "type": "address"
        }
      ],
      "payable": false,
      "stateMutability": "view",
      "type": "function"
    },
    {
      "constant": false,
      "inputs": [
        {
          "name": "newOwner",
          "type": "address"
        }
      ],
      "name": "transferOwnership",
      "outputs": [],
      "payable": false,
      "stateMutability": "nonpayable",
      "type": "function"
    },
    {
      "anonymous": false,
      "inputs": [],
      "name": "newCardAdded",
      "type": "event"
    },
    {
      "anonymous": false,
      "inputs": [],
      "name": "cardBought",
      "type": "event"
    },
    {
      "anonymous": false,
      "inputs": [],
      "name": "addedtoMarketPlace",
      "type": "event"
    },
    {
      "anonymous": false,
      "inputs": [],
      "name": "removedFromMarketPlace",
      "type": "event"
    },
    {
      "anonymous": false,
      "inputs": [
        {
          "indexed": false,
          "name": "_from",
          "type": "address"
        },
        {
          "indexed": false,
          "name": "_to",
          "type": "address"
        },
        {
          "indexed": false,
          "name": "_tokenId",
          "type": "uint256"
        }
      ],
      "name": "Transfer",
      "type": "event"
    },
    {
      "anonymous": false,
      "inputs": [
        {
          "indexed": true,
          "name": "previousOwner",
          "type": "address"
        },
        {
          "indexed": true,
          "name": "newOwner",
          "type": "address"
        }
      ],
      "name": "OwnershipTransferred",
      "type": "event"
    },
    {
      "constant": true,
      "inputs": [],
      "name": "getCardsByOwner",
      "outputs": [
        {
          "components": [
            {
              "name": "name",
              "type": "string"
            },
            {
              "name": "currentPrice",
              "type": "uint256"
            },
            {
              "name": "sellingPrice",
              "type": "uint256"
            },
            {
              "name": "addToMarket",
              "type": "bool"
            }
          ],
          "name": "",
          "type": "tuple[]"
        }
      ],
      "payable": false,
      "stateMutability": "view",
      "type": "function"
    },
    {
      "constant": false,
      "inputs": [
        {
          "name": "_name",
          "type": "string"
        },
        {
          "name": "_currentPrice",
          "type": "uint256"
        },
        {
          "name": "_sellingPrice",
          "type": "uint256"
        },
        {
          "name": "_addToMarket",
          "type": "bool"
        }
      ],
      "name": "addCard",
      "outputs": [],
      "payable": false,
      "stateMutability": "nonpayable",
      "type": "function"
    },
    {
      "constant": true,
      "inputs": [
        {
          "name": "_tokenId",
          "type": "uint256"
        }
      ],
      "name": "getCard",
      "outputs": [
        {
          "name": "",
          "type": "string"
        }
      ],
      "payable": false,
      "stateMutability": "view",
      "type": "function"
    },
    {
      "constant": true,
      "inputs": [],
      "name": "getTotalCardsCount",
      "outputs": [
        {
          "name": "",
          "type": "uint256"
        }
      ],
      "payable": false,
      "stateMutability": "view",
      "type": "function"
    },
    {
      "constant": false,
      "inputs": [
        {
          "name": "_to",
          "type": "address"
        },
        {
          "name": "_tokenId",
          "type": "uint256"
        }
      ],
      "name": "transfer",
      "outputs": [],
      "payable": false,
      "stateMutability": "nonpayable",
      "type": "function"
    },
    {
      "constant": false,
      "inputs": [
        {
          "name": "_tokenId",
          "type": "uint256"
        }
      ],
      "name": "buyCards",
      "outputs": [],
      "payable": true,
      "stateMutability": "payable",
      "type": "function"
    }
  ],
  "bytecode": "0x6080604052336000806101000a81548173ffffffffffffffffffffffffffffffffffffffff021916908373ffffffffffffffffffffffffffffffffffffffff1602179055506114ab806100536000396000f30060806040526004361061008e576000357c0100000000000000000000000000000000000000000000000000000000900463ffffffff16806386495e22146100935780638da5cb5b146100af5780639188d312146100da578063a9059cbb14610117578063c32133ae14610140578063cf2958e41461016b578063dbb829a314610194578063f2fde38b146101bf575b600080fd5b6100ad60048036036100a89190810190611142565b6101e8565b005b3480156100bb57600080fd5b506100c46102d6565b6040516100d191906112d5565b60405180910390f35b3480156100e657600080fd5b5061010160048036036100fc9190810190611142565b6102fb565b60405161010e9190611349565b60405180910390f35b34801561012357600080fd5b5061013e60048036036101399190810190611086565b6103dd565b005b34801561014c57600080fd5b5061015561044d565b604051610162919061136b565b60405180910390f35b34801561017757600080fd5b50610192600480360361018d91908101906110c2565b61045a565b005b3480156101a057600080fd5b506101a961064d565b6040516101b69190611327565b60405180910390f35b3480156101cb57600080fd5b506101e660048036036101e1919081019061105d565b6108a6565b005b6000806001838154811015156101fa57fe5b9060005260206000209060040201600101549150600360008060009054906101000a900473ffffffffffffffffffffffffffffffffffffffff1673ffffffffffffffffffffffffffffffffffffffff1673ffffffffffffffffffffffffffffffffffffffff16815260200190815260200160002060008481526020019081526020016000205490508134101580156102925750600081115b151561029d57600080fd5b6102c96000809054906101000a900473ffffffffffffffffffffffffffffffffffffffff1633856109fb565b6102d1610d36565b505050565b6000809054906101000a900473ffffffffffffffffffffffffffffffffffffffff1681565b606060018054905082111580156103125750600082115b151561031d57600080fd5b60018281548110151561032c57fe5b90600052602060002090600402016000018054600181600116156101000203166002900480601f0160208091040260200160405190810160405280929190818152602001828054600181600116156101000203166002900480156103d15780601f106103a6576101008083540402835291602001916103d1565b820191906000526020600020905b8154815290600101906020018083116103b457829003601f168201915b50505050509050919050565b806000600360003373ffffffffffffffffffffffffffffffffffffffff1673ffffffffffffffffffffffffffffffffffffffff16815260200190815260200160002060008381526020019081526020016000205411151561043d57600080fd5b6104483384846109fb565b505050565b6000600180549050905090565b60008060009054906101000a900473ffffffffffffffffffffffffffffffffffffffff1673ffffffffffffffffffffffffffffffffffffffff163373ffffffffffffffffffffffffffffffffffffffff161415156104b757600080fd5b6104f586868080601f016020809104026020016040519081016040528093929190818152602001838380828437820191505050505050858585610e12565b905061054a6001600260003373ffffffffffffffffffffffffffffffffffffffff1673ffffffffffffffffffffffffffffffffffffffff16815260200190815260200160002054610ece90919063ffffffff16565b600260003373ffffffffffffffffffffffffffffffffffffffff1673ffffffffffffffffffffffffffffffffffffffff168152602001908152602001600020819055506105f16001600360003373ffffffffffffffffffffffffffffffffffffffff1673ffffffffffffffffffffffffffffffffffffffff168152602001908152602001600020600084815260200190815260200160002054610ece90919063ffffffff16565b600360003373ffffffffffffffffffffffffffffffffffffffff1673ffffffffffffffffffffffffffffffffffffffff168152602001908152602001600020600083815260200190815260200160002081905550505050505050565b606080600060018054905060405190808252806020026020018201604052801561069157816020015b61067e610f05565b8152602001906001900390816106765790505b509150600090505b60018054905081101561089e576000600360003373ffffffffffffffffffffffffffffffffffffffff1673ffffffffffffffffffffffffffffffffffffffff16815260200190815260200160002060008381526020019081526020016000205411156108195760018181548110151561070e57fe5b906000526020600020906004020160806040519081016040529081600082018054600181600116156101000203166002900480601f0160208091040260200160405190810160405280929190818152602001828054600181600116156101000203166002900480156107c15780601f10610796576101008083540402835291602001916107c1565b820191906000526020600020905b8154815290600101906020018083116107a457829003601f168201915b5050505050815260200160018201548152602001600282015481526020016003820160009054906101000a900460ff161515151581525050828281518110151561080757fe5b90602001906020020181905250610891565b6080604051908101604052806040805190810160405280600481526020017f6e756c6c000000000000000000000000000000000000000000000000000000008152508152602001600181526020016001815260200160001515815250828281518110151561088357fe5b906020019060200201819052505b8080600101915050610699565b819250505090565b6000809054906101000a900473ffffffffffffffffffffffffffffffffffffffff1673ffffffffffffffffffffffffffffffffffffffff163373ffffffffffffffffffffffffffffffffffffffff1614151561090157600080fd5b600073ffffffffffffffffffffffffffffffffffffffff168173ffffffffffffffffffffffffffffffffffffffff161415151561093d57600080fd5b8073ffffffffffffffffffffffffffffffffffffffff166000809054906101000a900473ffffffffffffffffffffffffffffffffffffffff1673ffffffffffffffffffffffffffffffffffffffff167f8be0079c531659141344cd1fd0a4f28419497f9722a3daafe3b4186f6b6457e060405160405180910390a3806000806101000a81548173ffffffffffffffffffffffffffffffffffffffff021916908373ffffffffffffffffffffffffffffffffffffffff16021790555050565b6000600360008573ffffffffffffffffffffffffffffffffffffffff1673ffffffffffffffffffffffffffffffffffffffff168152602001908152602001600020600083815260200190815260200160002054111515610a5a57600080fd5b610aad6001600260008573ffffffffffffffffffffffffffffffffffffffff1673ffffffffffffffffffffffffffffffffffffffff16815260200190815260200160002054610ece90919063ffffffff16565b600260008473ffffffffffffffffffffffffffffffffffffffff1673ffffffffffffffffffffffffffffffffffffffff16815260200190815260200160002081905550610b546001600360008573ffffffffffffffffffffffffffffffffffffffff1673ffffffffffffffffffffffffffffffffffffffff168152602001908152602001600020600084815260200190815260200160002054610ece90919063ffffffff16565b600360008473ffffffffffffffffffffffffffffffffffffffff1673ffffffffffffffffffffffffffffffffffffffff168152602001908152602001600020600083815260200190815260200160002081905550610bfb6001600260008673ffffffffffffffffffffffffffffffffffffffff1673ffffffffffffffffffffffffffffffffffffffff16815260200190815260200160002054610eec90919063ffffffff16565b600260008573ffffffffffffffffffffffffffffffffffffffff1673ffffffffffffffffffffffffffffffffffffffff16815260200190815260200160002081905550610ca26001600360008673ffffffffffffffffffffffffffffffffffffffff1673ffffffffffffffffffffffffffffffffffffffff168152602001908152602001600020600084815260200190815260200160002054610eec90919063ffffffff16565b600360008573ffffffffffffffffffffffffffffffffffffffff1673ffffffffffffffffffffffffffffffffffffffff1681526020019081526020016000206000838152602001908152602001600020819055507fddf252ad1be2c89b69c2b068fc378daa952ba7f163c4a11628f55a4df523b3ef838383604051610d29939291906112f0565b60405180910390a1505050565b6000809054906101000a900473ffffffffffffffffffffffffffffffffffffffff1673ffffffffffffffffffffffffffffffffffffffff163373ffffffffffffffffffffffffffffffffffffffff16141515610d9157600080fd5b6000809054906101000a900473ffffffffffffffffffffffffffffffffffffffff1673ffffffffffffffffffffffffffffffffffffffff166108fc3073ffffffffffffffffffffffffffffffffffffffff16319081150290604051600060405180830381858888f19350505050158015610e0f573d6000803e3d6000fd5b50565b60008060018054905090506001608060405190810160405280888152602001878152602001868152602001851515815250908060018154018082558091505090600182039060005260206000209060040201600090919290919091506000820151816000019080519060200190610e8a929190610f30565b50602082015181600101556040820151816002015560608201518160030160006101000a81548160ff02191690831515021790555050505080915050949350505050565b6000808284019050838110151515610ee257fe5b8091505092915050565b6000828211151515610efa57fe5b818303905092915050565b6080604051908101604052806060815260200160008152602001600081526020016000151581525090565b828054600181600116156101000203166002900490600052602060002090601f016020900481019282601f10610f7157805160ff1916838001178555610f9f565b82800160010185558215610f9f579182015b82811115610f9e578251825591602001919060010190610f83565b5b509050610fac9190610fb0565b5090565b610fd291905b80821115610fce576000816000905550600101610fb6565b5090565b90565b6000610fe182356113f7565b905092915050565b6000610ff58235611417565b905092915050565b60008083601f840112151561101157600080fd5b8235905067ffffffffffffffff81111561102a57600080fd5b60208301915083600182028301111561104257600080fd5b9250929050565b60006110558235611423565b905092915050565b60006020828403121561106f57600080fd5b600061107d84828501610fd5565b91505092915050565b6000806040838503121561109957600080fd5b60006110a785828601610fd5565b92505060206110b885828601611049565b9150509250929050565b6000806000806000608086880312156110da57600080fd5b600086013567ffffffffffffffff8111156110f457600080fd5b61110088828901610ffd565b9550955050602061111388828901611049565b935050604061112488828901611049565b925050606061113588828901610fe9565b9150509295509295909350565b60006020828403121561115457600080fd5b600061116284828501611049565b91505092915050565b611174816113c1565b82525050565b600061118582611393565b8084526020840193508360208202850161119e85611386565b60005b848110156111d75783830388526111b9838351611263565b92506111c4826113b4565b91506020880197506001810190506111a1565b508196508694505050505092915050565b6111f1816113e1565b82525050565b6000611202826113a9565b80845261121681602086016020860161142d565b61121f81611460565b602085010191505092915050565b60006112388261139e565b80845261124c81602086016020860161142d565b61125581611460565b602085010191505092915050565b60006080830160008301518482036000860152611280828261122d565b915050602083015161129560208601826112c6565b5060408301516112a860408601826112c6565b5060608301516112bb60608601826111e8565b508091505092915050565b6112cf816113ed565b82525050565b60006020820190506112ea600083018461116b565b92915050565b6000606082019050611305600083018661116b565b611312602083018561116b565b61131f60408301846112c6565b949350505050565b60006020820190508181036000830152611341818461117a565b905092915050565b6000602082019050818103600083015261136381846111f7565b905092915050565b600060208201905061138060008301846112c6565b92915050565b6000602082019050919050565b600081519050919050565b600081519050919050565b600081519050919050565b6000602082019050919050565b600073ffffffffffffffffffffffffffffffffffffffff82169050919050565b60008115159050919050565b6000819050919050565b600073ffffffffffffffffffffffffffffffffffffffff82169050919050565b60008115159050919050565b6000819050919050565b60005b8381101561144b578082015181840152602081019050611430565b8381111561145a576000848401525b50505050565b6000601f19601f83011690509190505600a265627a7a723058201f8f5fab082aac924f8687c749e68ba1980ff9d925a0e065f5048cc091470c2d6c6578706572696d656e74616cf50037",
  "source": "pragma solidity ^0.4.19;\r\npragma experimental ABIEncoderV2;\r\nimport \"./Ownable.sol\";\r\nimport \"./SafeMath.sol\";\r\nimport \"./erc721.sol\";\r\n\r\n\r\ncontract AnimeCard is Ownable {\r\nusing SafeMath for uint;\r\n\r\nstruct Card{\r\n\r\n  string name;\r\n  uint currentPrice;\r\n  uint sellingPrice;\r\n  bool addToMarket;\r\n}\r\n\r\nevent newCardAdded();\r\nevent cardBought();\r\nevent addedtoMarketPlace();\r\nevent removedFromMarketPlace();\r\nevent Transfer(address _from, address _to, uint _tokenId);\r\n\r\n\r\nCard []private cards;\r\n\r\n//mapping (address => uint []) _ownerToCard; //owner address to cards array\r\nmapping (address => uint) _ownerToCardCount; // total card count\r\nmapping (address =>  mapping (uint => uint))  _ownerCardToCount; // owner has what count of a particular card\r\n\r\n//mapping (uint => bool) _ownerCardRelation;\r\n//mapping(address => uint) _addressToCardCount; // total card count\r\n\r\nuint private TotalPayment;//total payments made to this day\r\n\r\n\r\n\r\nmodifier onlyOwnerOf(uint _tokenId){\r\n  require(_ownerCardToCount [msg.sender][_tokenId] > 0);\r\n  _;\r\n}\r\n\r\nfunction getCardsByOwner() external view returns (Card []){\r\n  Card [] memory arr =  new Card[](cards.length);\r\n\r\n  for(uint i=0 ; i < cards.length ; i++){\r\n    if(_ownerCardToCount[msg.sender][i] > 0){\r\n      arr[i] = cards[i];\r\n    }\r\n    else {\r\n            arr[i]=Card(\"null\",1,1,false);\r\n    }\r\n\r\n\r\n  }\r\n  return arr;\r\n}\r\n\r\n\r\n  //function ownerOf(uint256 _tokenId) public view returns (address _owner);\r\n  function _transfer(address _from, address _to, uint256 _tokenId) private {\r\n      require( _ownerCardToCount[_from][_tokenId] > 0 );\r\n\r\n    _ownerToCardCount[_to] = _ownerToCardCount[_to].add(1);\r\n    _ownerCardToCount[_to][_tokenId] = _ownerCardToCount[_to][_tokenId].add(1);\r\n\r\n    _ownerToCardCount[_from] = _ownerToCardCount[_from].sub(1);\r\n    _ownerCardToCount[_from][_tokenId] = _ownerCardToCount[_from][_tokenId].sub(1);\r\n\r\n//remove from prev user\r\n\r\n\r\n//if(_ownerCardToCount[_to][_tokenId] == 0 )\r\n    //_ownerToCard[_to].push(_tokenId);\r\n\r\n   emit Transfer(_from, _to, _tokenId);\r\n}\r\n\r\n\r\n  function addCardHelper(string _name, uint _currentPrice, uint _sellingPrice, bool _addToMarket) private returns(uint){\r\n        uint _index = cards.length ;\r\n        cards.push(Card(_name, _currentPrice, _sellingPrice, _addToMarket));\r\n\r\n      //  _ownerToCard[msg.sender].push(_index) ;\r\n\r\n    return _index;\r\n  }\r\nfunction addCard (string _name, uint _currentPrice, uint _sellingPrice, bool _addToMarket) external onlyOwner{\r\n        uint _index = addCardHelper(_name, _currentPrice, _sellingPrice, _addToMarket);\r\n        _ownerToCardCount[msg.sender] = _ownerToCardCount[msg.sender].add(1);\r\n\r\n        _ownerCardToCount[msg.sender][_index] = _ownerCardToCount[msg.sender][_index].add(1) ; // owner has what count of a particular card\r\n}\r\nfunction getCard(uint _tokenId) public view returns (string){\r\n    require(_tokenId <= cards.length && _tokenId > 0 );\r\n    return cards[_tokenId].name;\r\n}\r\n\r\n\r\n/////////////////////       ERC 721 PROTOCOL\r\nfunction getTotalCardsCount () public view returns(uint){\r\n  return cards.length;\r\n}\r\n\r\n  //function balanceOf(address _owner) public view returns (uint256 _balance);\r\n\r\n\r\nfunction transfer(address _to, uint256 _tokenId) public onlyOwnerOf(_tokenId){\r\n      _transfer(msg.sender, _to, _tokenId);\r\n  }\r\n//  function approve(address _to, uint256 _tokenId) public;\r\n//  function takeOwnership(uint256 _tokenId) public;\r\n\r\n//---------------------------------------\r\n\r\nfunction withdraw() internal onlyOwner {\r\n  owner.transfer(address(this).balance);\r\n}\r\n\r\n\r\nfunction buyCards(uint _tokenId) external payable{\r\n    // TO DO\r\n        uint price = cards[_tokenId].currentPrice;\r\n        //\r\n        uint cardCount  = _ownerCardToCount[owner][_tokenId];\r\n        require(msg.value >= price && cardCount > 0);\r\n\r\n\r\n         _transfer(owner, msg.sender, _tokenId);\r\n         withdraw();\r\n\r\n  }\r\n\r\n\r\n\r\n\r\n}\r\n",
  "sourcePath": "C:\\Users\\Moeed\\Desktop\\infuraAnime\\contracts\\AnimeCard.sol",
  "compiler": {
    "name": "solc",
    "version": "0.4.24+commit.e67f0147.Emscripten.clang"
  },
  "schemaVersion": "2.0.1",
  "updatedAt": "2018-07-01T18:35:41.719Z"
}